:100000000C9472000C9493000C9493000C94930045
:100010000C9493000C9409010C942E010C94930001
:100020000C9493000C9493000C9493000C94930004
:100030000C9493000C9493000C9493000C949300F4
:100040000C9493000C9493000C9493000C949300E4
:100050000C9493000C9493000C9493000C949300D4
:100060000C9493000C9494020C9493000C949300C1
:100070000C9493000C9493000C9493000C949300B4
:100080000C9493000C9493000C9493000C949300A4
:100090000C9493000C9493000C9493000C94930094
:1000A0000C9493000C9493000C9493000C94930084
:1000B0000C9493000C9493000C9493000C94930074
:1000C0000C9493000C9493000C9493000C94930064
:1000D0000C9493000C9493000C9493000C94930054
:1000E0000C94930011241FBECFEFD1E2DEBFCDBF31
:1000F00000E00CBF12E0A0E0B2E0E2E6F9E000E0D0
:100100000BBF02C007900D92A630B107D9F712E0DD
:10011000A6E0B2E001C01D92A038B107E1F70E944D
:100120007E040C94AF040C940000E1ECF0E010822B
:100130001092C000A2ECB0E086E08C939FE5909313
:10014000C4001092C50098E990838C9388E1808365
:1001500008958AE082B908958FEF85B9089515B89A
:10016000089589EA80932001E1E2F1E010828FEFA7
:100170008093250191E090932401109229018093AE
:10018000280110922B0180932A0180932C01109258
:100190002D018BE0808308956093280180932A01CC
:1001A000089581E76BE70E94CC0089E082B9089549
:1001B0000E94D1000E948E0108958FE081B912B88B
:1001C00088E180930A0180930B0108956C98749ADA
:1001D00008956D98759A08958FEF84B90E94B100C3
:1001E0000E94DD000E94E6000E94E9000895F89454
:1001F000EAE6F0E0808182608083EC9A789408954A
:10020000F894EAE6F0E0808188608083ED9A789443
:1002100008951F920F920FB60F9211248F939F9300
:10022000AF93BF938091130290911402A091150295
:10023000B09116020196A11DB11D809313029093F7
:100240001402A0931502B0931602BF91AF919F9133
:100250008F910F900FBE0F901F9018951F920F92C5
:100260000FB60F9211248F939F93AF93BF938091FA
:100270000F0290911002A0911102B091120201960A
:10028000A11DB11D80930F0290931002A093110243
:10029000B0931202BF91AF919F918F910F900FBEBB
:1002A0000F901F90189510BA11BA0895EAE7F0E080
:1002B000108210927B0080E280937C0080E880BFF7
:1002C00086E8808308958770806280937C00EAE7E7
:1002D000F0E0808180648083808184FFFDCF809105
:1002E0007900EAE7F0E090819061908310927B00C2
:1002F000089583E00E9463018093080282E00E94D7
:1003000063018093070281E00E94630180930602EB
:10031000089580E060E00E94CC0008950E94790179
:1003200080910202909103022091080230E082172E
:100330009307A4F32091070230E02817390774F3DC
:100340002091060230E08217930744F380E060E0DA
:100350000E94CC000E9489010895CF9381E76BE74A
:100360000E94CC000E94790185E082B9C5E071C08D
:100370000E947901C2B94091080250E080910202C6
:10038000909103028417950714F16091070270E0C1
:100390008617970774F02091060230E02817390776
:1003A0002CF087E666E40E94CC0053C068177907FA
:1003B0005CF02091060230E0281739072CF087E620
:1003C00067E60E94CC0045C04817590714F16091B8
:1003D000070270E08617970774F02091060230E05C
:1003E000821793072CF08CE361E70E94CC0031C0A8
:1003F000681779075CF02091060230E082179307B6
:100400002CF08DE561E70E94CC0023C0841795078E
:100410008CF02091070230E0281739075CF020911A
:10042000060230E0821793072CF081E76BE70E9409
:10043000CC000FC00E94A9008FE569E60E94CC00A5
:100440008FEF9FE7A6E181509040A040E1F700C008
:10045000000080910202909103022091080230E096
:10046000281739070CF484CF2091070230E02817B1
:1004700039070CF47DCF2091060230E028173907A8
:100480000CF476CF80911B0290E0A2E080309A07B6
:1004900029F480E060E00E94CC0023C08FEF9FEB46
:1004A000A6E081509040A040E1F700C0000088E243
:1004B00062E30E94CC008FEF9FEFA8E08150904054
:1004C000A040E1F700C0000080E060E00E94CC00A6
:1004D0008FEF9FEFACE281509040A040E1F700C069
:1004E0000000CF910895F8940E94EC000E94F7005C
:1004F0000E9400018FEF84B9809301010E94950052
:100500000E94560178940895E0ECF0E08081882301
:10051000ECF78091C6000895E0ECF0E0908195FF43
:10052000FDCF8093C60008951F920F920FB60F92D1
:1005300011248F938091C60080937F028F910F903A
:100540000FBE0F901F90189581E76BE70E94CC00BB
:1005500086E082B908950E94A4020E948E01089547
:100560008FEF809302010895109202010895EF9297
:10057000FF920F931F93CF93DF9381E76BE70E9466
:10058000CC0085E082B986E696EEA2E181509040EB
:10059000A040E1F70E94AD0110920A0210920902F8
:1005A0001092130210921402109215021092160269
:1005B00010920F0210921002109211021092120269
:1005C00080911B028E3209F44CC10AE015E00F2E17
:1005D000F8EDEF2EF0E0FF2EF02DCBE1D2E08737E3
:1005E00019F40E94AD012DC18136C9F40E94D800D2
:1005F0008FEF9FE7ADE081509040A040E1F700C051
:1006000000002091070230E08091020290910302E5
:10061000821793070CF415C10E94AB0212C18436F5
:10062000C9F40E94AB028FEF9FE7ADE0815090408C
:10063000A040E1F700C000002091070230E0809167
:10064000020290910302821793070CF4FAC00E94F1
:10065000D800F7C08337A1F5F70119950E94D100A2
:100660008FEF9FE7AFE181509040A040E1F700C0DD
:100670000000F70119958FEF9FE7AFE1815090409F
:10068000A040E1F700C000000E9479012091020221
:10069000309103028091080290E0281739076CF02E
:1006A0008091070290E0821793073CF08091060248
:1006B00090E0281739070CF0C4C00E94AB02C1C0FB
:1006C000873539F58FEF9FE7A4E081509040A04037
:1006D000E1F700C0000081E76BE70E94CC0012B98F
:1006E0008FEF9FE3A4E181509040A040E1F700C06C
:1006F000000080E060E00E94CC008FEF9FE7A6E161
:1007000081509040A040E1F700C000000E94AF007F
:1007100098C08134B9F40E94D8008FEF9FE3A2E023
:1007200081509040A040E1F700C000000E944404C6
:100730008FEF9FE7A6E181509040A040E1F700C015
:1007400000007FC08434B9F40E94AB028FEF9FE3B6
:10075000A2E081509040A040E1F700C000000E945C
:1007600061048FEF9FE7A6E181509040A040E1F740
:1007700000C0000066C0833521F58FEF9FE7A4E03D
:1007800081509040A040E1F700C0000081E76BE796
:100790000E94CC0002B910920F0210921002109227
:1007A0001102109212028FEF9FE3A4E1815090405A
:1007B000A040E1F700C0000080E060E00E94CC00B3
:1007C00040C08035A9F40E94B0028FEF9FEFACE2E9
:1007D00081509040A040E1F700C000008AE40E94F0
:1007E0008C020E948402809304020E948C0229C021
:1007F0008435A9F48BE40E948C020E9484028093C9
:1008000004020E948C020E94B4028FEF9FEFA9E5C0
:1008100081509040A040E1F700C0000012C08A372C
:1008200061F40E94AC008FEF9FEFA0EE81509040EA
:10083000A040E1F700C0000004C08A3511F40E9416
:10084000AF008091090290910A02019690930A02EA
:10085000809309028C0F9D1FDC018C918E3209F070
:10086000BECE0E948901DF91CF911F910F91FF9021
:10087000EF9008958FEF9FE7A6E181509040A04050
:10088000E1F700C00000089510920F0210921002CC
:10089000109211021092120288E762E80E94CC00C6
:1008A00089E082B90E943A0480E060E00E94CC00B6
:1008B00010920F0210921002109211021092120266
:1008C000089510920F0210921002109211021092CD
:1008D000120288E762E80E94CC0086E082B90E949A
:1008E0003A0480E060E00E94CC0010920F02109267
:1008F000100210921102109212020895CF93DF930A
:100900000E947302CBE1D2E00E9484028093040231
:10091000E0910902F0910A02EC0FFD1F80830E9412
:100920008C02809104028E3251F0809109029091E4
:100930000A02019690930A0280930902E5CF8FEF95
:100940009FEFA8E081509040A040E1F700C0000078
:100950000E94B70280E090E0DF91CF910895F89473
:02096000FFCFC7
:0609620050005A006F0076
:00000001FF
